:100000000C945D000C9485000C9485000C94850084
:100010000C9485000C9485000C9485000C9485004C
:100020000C9485000C9485000C9485000C94E103DD
:100030000C9485000C9485000C9485000C9485002C
:100040000C9497030C9485000C9465030C943F0367
:100050000C9485000C9485000C9485000C9485000C
:100060000C9485000C94850000000008000201003B
:100070000003040700000000000000000000000072
:10008000250028002B0000000000240027002A0083
:10009000040404040404040402020202020203032E
:1000A0000303030301020408102040800102040836
:1000B0001020010204081020450511241FBECFEFB7
:1000C000D8E0DEBFCDBF11E0A0E0B1E0E0E7FEE0A8
:1000D00002C005900D92A631B107D9F722E0A6E142
:1000E000B1E001C01D92A532B207E1F710E0CDE505
:1000F000D0E004C02197FE010E943007CC35D10723
:10010000C9F70E94A8050C9436070C9400008F9242
:100110009F92AF92BF92FF920F931F93CF93DF9363
:10012000F0901F022091210208E512E0021B110944
:1001300027FD1395000F111F000F111F20912002A2
:10014000C8E8D0E0C21BD10927FDD395CC0FDD1F35
:10015000CC0FDD1F4E010D2E000CAA08BB08980124
:10016000012E000C440B550B281939094A095B096B
:10017000DC010E94EB0624EB30E040E050E00E94FE
:10018000C106820E931EA41EB51E88E0F89EF001E3
:100190001124DF01A254BE4F14969C928E921397A5
:1001A0008BE08F1598F08C169D062CF0E8018016D8
:1001B00091060CF4E4018FB7F894E254FE4F2297B5
:1001C000CC0FDD1FD283C1838FBF1782DF91CF9108
:1001D0001F910F91FF90BF90AF909F908F900895C7
:1001E0008F929F92AF92BF92DF92EF92FF920F9306
:1001F0001F93CF93DF93D62E20911F0238E0239FC9
:1002000070011124F701E254FE4F94838383662327
:1002100009F456C02C3008F047C02091210208E5AF
:1002200012E0021B110927FD1395000F111F000F8B
:10023000111F20912002C8E8D0E0C21BD10927FD80
:10024000D395CC0FDD1FCC0FDD1F4E010D2E000C02
:10025000AA08BB089801012E000C440B550B281965
:1002600039094A095B09DC010E94EB0624EB30E006
:1002700040E050E00E94C106820E931EA41EB51EEF
:100280008C169D062CF0E801801691060CF4E40112
:100290008FB7F894F701E254FE4F2297CC0FDD1F81
:1002A000D683C583D7828FBFDF91CF911F910F91E6
:1002B000FF90EF90DF90BF90AF909F908F90089548
:1002C000DF91CF911F910F91FF90EF90DF90BF9042
:1002D000AF909F908F900C948700AF92BF92CF9277
:1002E000DF92EF92FF920F931F93CF93DF936C01F6
:1002F0007B018B01040F151FEB015E01AE18BF08D7
:10030000C017D10759F06991D601ED91FC91019088
:10031000F081E02DC6010995892B79F7C501DF91A0
:10032000CF911F910F91FF90EF90DF90CF90BF90F2
:10033000AF900895FC01538D448D252F30E0842F1C
:1003400090E0821B930B541710F0CF9608950197FD
:100350000895FC01918D828D981761F0A28DAE0FEA
:10036000BF2FB11D5D968C91928D9F5F9F73928F71
:1003700090E008958FEF9FEF0895FC01918D828D9D
:10038000981731F0828DE80FF11D858D90E008956A
:100390008FEF9FEF0895FC01918D228D892F90E0C2
:1003A000805C9F4F821B91098F739927089581E28A
:1003B00091E00E94CB0121E0892B09F420E0822FFB
:1003C000089580E090E0892B29F00E94D7018111E7
:1003D0000C9400000895FC01A48DA80FB92FB11D45
:1003E000A35ABF4F2C91848D90E001968F7399276B
:1003F000848FA689B7892C93A089B1898C91837049
:1004000080648C93938D848D981306C00288F38941
:10041000E02D80818F7D80830895EF92FF920F936E
:100420001F93CF93DF93EC0181E0888F9B8D8C8DA0
:1004300098131AC0E889F989808185FF15C09FB794
:10044000F894EE89FF896083E889F9898081837057
:10045000806480839FBF81E090E0DF91CF911F9106
:100460000F91FF90EF900895F62E0B8D10E00F5F27
:100470001F4F0F731127E02E8C8D8E110CC00FB6FD
:1004800007FCFACFE889F989808185FFF5CFCE0195
:100490000E94EB01F1CFEB8DEC0FFD2FF11DE35A24
:1004A000FF4FF0829FB7F8940B8FEA89FB89808118
:1004B0008062CFCFCF93DF93EC01888D8823B9F092
:1004C000AA89BB89E889F9898C9185FD03C080815F
:1004D00086FD0DC00FB607FCF7CF8C9185FFF2CFDC
:1004E000808185FFEDCFCE010E94EB01E9CFDF9146
:1004F000CF91089590E0FC01E859FF4F2491FC0151
:10050000EC55FF4F3491FC01E057FF4FE491EE238F
:10051000C9F0222339F0233001F1A8F4213019F178
:10052000223029F1F0E0EE0FFF1FE458FF4FA591B4
:10053000B4918FB7F894EC91611126C030953E23A9
:100540003C938FBF08952730A9F02830C9F024309C
:1005500049F7809180008F7D03C0809180008F7764
:1005600080938000DFCF84B58F7784BDDBCF84B5E7
:100570008F7DFBCF8091B0008F778093B000D2CF7A
:100580008091B0008F7DF9CF3E2BDACF3FB7F89442
:1005900080911C0190911D01A0911E01B0911F013D
:1005A00026B5A89B05C02F3F19F00196A11DB11DCE
:1005B0003FBFBA2FA92F982F8827BC01CD01620F0A
:1005C000711D811D911D42E0660F771F881F991FC5
:1005D0004A95D1F708958F929F92AF92BF92CF9292
:1005E000DF92EF92FF926B017C010E94C6024B01E9
:1005F0005C01C114D104E104F104B9F00E94C60207
:10060000681979098A099B09683E7340810591053B
:1006100080F321E0C21AD108E108F10888EE880EC3
:1006200083E0981EA11CB11CE4CFFF90EF90DF90F7
:10063000CF90BF90AF909F908F900895CF92DF9210
:10064000EF92FF92CF936C01C62F90E080E00E9462
:10065000F0000D2C000CEE08FF08C701B6010E9447
:10066000EB026C2F8FE590E00E94F000C701B6010D
:10067000CF91FF90EF90DF90CF900C94EB021F9200
:100680000F920FB60F9211242F933F934F935F93C6
:100690006F937F938F939F93AF93BF93EF93FF934A
:1006A00081E291E00E94EB01FF91EF91BF91AF9148
:1006B0009F918F917F916F915F914F913F912F917A
:1006C0000F900FBE0F901F9018951F920F920FB6AC
:1006D0000F9211242F938F939F93EF93FF93E091A9
:1006E0003101F09132018081E0913701F0913801C0
:1006F00082FD1BC0908180913A018F5F8F732091A2
:100700003B01821741F0E0913A01F0E0EF5DFE4FCE
:10071000958F80933A01FF91EF919F918F912F9147
:100720000F900FBE0F901F9018958081F4CF1F92ED
:100730000F920FB60F9211242F933F938F939F9395
:10074000AF93BF938091180190911901A0911A0164
:10075000B0911B013091170123E0230F2D3758F57D
:100760000196A11DB11D209317018093180190934C
:100770001901A0931A01B0931B0180911C01909163
:100780001D01A0911E01B0911F010196A11DB11D77
:1007900080931C0190931D01A0931E01B0931F0133
:1007A000BF91AF919F918F913F912F910F900FBE6D
:1007B0000F901F90189526E8230F0296A11DB11DDA
:1007C000D2CF1F920F920FB60F9211242F933F9307
:1007D0004F935F936F937F938F939F93AF93BF9349
:1007E000CF93DF93EF93FF9380911601C0911E0288
:1007F000D0E087FF23C01092850010928400809182
:1008000016018F5F8093160180911601082E000C4F
:10081000990B8C179D0724F4809116018C307CF184
:10082000809184009091850084349C4908F423C110
:10083000809184009091850004961FC180911601DB
:10084000082E000C990B8C179D07CCF6E091160131
:1008500028E0E202F0011124E254FE4F808186FF7D
:10086000CECFE091160188E0E802F0011124E254B5
:10087000FE4F808160E08F730E947A02C0CFE091CA
:10088000160188E0E802F0011124E254FE4F87814E
:10089000882309F468C0A0911601E091160128E0B0
:1008A000A202D0011124A254BE4F88E0E802F00158
:1008B0001124E254FE4F15962D913C918181928135
:1008C000A0911601E09116018217930708F08AC0E3
:1008D00028E0E202F0011124E254FE4F88E0A80271
:1008E000D0011124A254BE4F17968C9121813281E0
:1008F000820F932F911D92838183A0911601E09125
:10090000160128E0A202D0011124A254BE4F88E0B3
:10091000E802F0011124E254FE4F15962D913C910E
:100920008181928182179307F0F0A0911601E091E6
:10093000160128E0E202F0011124E254FE4F88E0A3
:10094000A802D0011124A254BE4F15968D919C91FE
:1009500092838183E091160128E0E202F0011124E4
:10096000E254FE4F17828091840090918500E091BF
:10097000160128E0E202F0011124E254FE4F218129
:100980003281820F931F9093890080938800E091B9
:10099000160188E0E802F0011124E254FE4F808144
:1009A00086FF0DC0E091160128E0E202F00111245B
:1009B000E254FE4F808161E08F730E947A02FF91C2
:1009C000EF91DF91CF91BF91AF919F918F917F91E7
:1009D0006F915F914F913F912F910F900FBE0F90AC
:1009E0001F90189588E0E802F0011124E254FE4FB0
:1009F00028E0A202D0011124A254BE4F17962C91D8
:100A000081819281821B910992838183A091160139
:100A1000E091160188E0A802D0011124A254BE4F33
:100A200028E0E202F0011124E254FE4F15962D91C8
:100A30003C91818192812817390708F494CFA091C5
:100A40001601E091160188E0E802F0011124E25459
:100A5000FE4F28E0A202D0011124A254BE4F1596E9
:100A60008D919C9192838183E091160188E0E80248
:100A7000F001112475CF80E49CE990938900809364
:100A800088008FEF809316019ACF10922401109264
:100A9000230188EE93E0A0E0B0E0809325019093DD
:100AA0002601A0932701B093280188E091E090935C
:100AB00022018093210185EC90E090932E01809398
:100AC0002D0184EC90E09093300180932F0180EC15
:100AD00090E0909332018093310181EC90E090930B
:100AE00034018093330182EC90E09093360180933F
:100AF000350186EC90E09093380180933701109295
:100B00003A0110923B0110923C0110923D01E0919C
:100B10001E02EC30C8F481E08E0F80931E02E09339
:100B20001F0288E0E89FF0011124E254FE4F88EB99
:100B30009BE0928381831092240280E091E0909365
:100B400023028093220208958FEF80931F0208955D
:100B5000789484B5826084BD84B5816084BD85B598
:100B6000826085BD85B5816085BD80916E008160A4
:100B700080936E001092810080918100826080934A
:100B8000810080918100816080938100809180004C
:100B90008160809380008091B10084608093B10077
:100BA0008091B00081608093B00080917A00846071
:100BB00080937A0080917A00826080937A0080919D
:100BC0007A00816080937A0080917A0080688093B7
:100BD0007A001092C100E0913101F091320182E07F
:100BE0008083E0912D01F0912E011082E0912F0180
:100BF000F09130018FEC808310923901E091350142
:100C0000F091360186E08083E0913301F091340168
:100C1000808180618083E0913301F0913401808193
:100C200088608083E0913301F09134018081806895
:100C30008083E0913301F091340180818F7D808346
:100C400080911F028C3008F062C0EDEAF0E0249140
:100C5000E9E9F0E08491882399F090E0880F991FEA
:100C6000FC01EA57FF4FA591B491FC01E458FF4FF6
:100C7000859194918FB7F894EC91E22BEC938FBF10
:100C800080911F0298E0899FF0011124E254FE4FE9
:100C90009081907C996090831092200210922102A2
:100CA0002CE0622F0E942407829FB001112430E0C3
:100CB00020E0FB01E20FF31F93E0EE0FFF1F9A9578
:100CC000E1F7E254FE4F908196FD16C02F5F3F4F33
:100CD0002C30310571F781110FC01092800082E035
:100CE000809381001092850010928400B19A8091C7
:100CF0006F00826080936F00E0911F0288E0E89FA0
:100D0000F0011124E254FE4F80818064808300E072
:100D100010E081E291E00E94CB011816190634F42C
:100D200081E291E00E94A90180932001C0912001FD
:100D30006C2F81E291E00E940D02C23369F0C3334F
:100D4000D9F062E370E088EE93E0C13349F090E0BF
:100D500080E00E94870006C064E670E08CEB92E0C1
:100D60000E941E0301151105A1F20E94D7018823DC
:100D700081F20E940000CDCF6FEF70E080E991E03A
:100D8000EFCF052E97FB1EF400940E94D80657FD66
:100D900007D00E94F30607FC03D04EF40C94D8064B
:100DA00050954095309521953F4F4F4F5F4F089597
:100DB00090958095709561957F4F8F4F9F4F0895C7
:100DC0000E941507A59F900DB49F900DA49F800DC4
:100DD000911D11240895B7FF0C94E0060E94E006CF
:100DE000821B930B0895A1E21A2EAA1BBB1BFD01C7
:100DF0000DC0AA1FBB1FEE1FFF1FA217B307E407FA
:100E0000F50720F0A21BB30BE40BF50B661F771F51
:100E1000881F991F1A9469F7609570958095909531
:100E20009B01AC01BD01CF010895A29FB001B39F0A
:100E3000C001A39F700D811D1124911DB29F700DE3
:100E4000811D1124911D0895991B79E004C0991FFB
:100E5000961708F0961B881F7A95C9F78095089514
:100E6000EE0FFF1F0590F491E02D0994F894FFCF49
:100E700000642D64000000000D026D019A015A0209
:060E8000CB01A901BD0138
:00000001FF
